{
  "_format": "hh-sol-artifact-1",
  "contractName": "VendingMachineV2",
  "sourceName": "contracts/VendingMachineV2.sol",
  "abi": [
    {
      "anonymous": false,
      "inputs": [
        {
          "indexed": false,
          "internalType": "uint8",
          "name": "version",
          "type": "uint8"
        }
      ],
      "name": "Initialized",
      "type": "event"
    },
    {
      "inputs": [
        {
          "internalType": "uint256",
          "name": "_numSodas",
          "type": "uint256"
        }
      ],
      "name": "initialize",
      "outputs": [],
      "stateMutability": "nonpayable",
      "type": "function"
    },
    {
      "inputs": [],
      "name": "numSodas",
      "outputs": [
        {
          "internalType": "uint256",
          "name": "",
          "type": "uint256"
        }
      ],
      "stateMutability": "view",
      "type": "function"
    },
    {
      "inputs": [],
      "name": "owner",
      "outputs": [
        {
          "internalType": "address",
          "name": "",
          "type": "address"
        }
      ],
      "stateMutability": "view",
      "type": "function"
    },
    {
      "inputs": [],
      "name": "purchaseSoda",
      "outputs": [],
      "stateMutability": "payable",
      "type": "function"
    },
    {
      "inputs": [
        {
          "internalType": "address",
          "name": "_newOwner",
          "type": "address"
        }
      ],
      "name": "setNewOwner",
      "outputs": [],
      "stateMutability": "nonpayable",
      "type": "function"
    },
    {
      "inputs": [],
      "name": "withdrawProfits",
      "outputs": [],
      "stateMutability": "nonpayable",
      "type": "function"
    }
  ],
  "bytecode": "0x608060405234801561001057600080fd5b50610c51806100206000396000f3fe6080604052600436106100555760003560e01c806339913e091461005a57806363b18329146100715780637454ab6d1461009c5780638da5cb5b146100a6578063f5a1f5b4146100d1578063fe4b84df146100fa575b600080fd5b34801561006657600080fd5b5061006f610123565b005b34801561007d57600080fd5b506100866102c7565b604051610093919061067d565b60405180910390f35b6100a46102cd565b005b3480156100b257600080fd5b506100bb6103c8565b6040516100c891906106d9565b60405180910390f35b3480156100dd57600080fd5b506100f860048036038101906100f39190610725565b6103ee565b005b34801561010657600080fd5b50610121600480360381019061011c919061077e565b6104c2565b005b600260009054906101000a900473ffffffffffffffffffffffffffffffffffffffff1673ffffffffffffffffffffffffffffffffffffffff163373ffffffffffffffffffffffffffffffffffffffff16146101b3576040517f08c379a00000000000000000000000000000000000000000000000000000000081526004016101aa9061082e565b60405180910390fd5b600047116101f6576040517f08c379a00000000000000000000000000000000000000000000000000000000081526004016101ed906108c0565b60405180910390fd5b6000600260009054906101000a900473ffffffffffffffffffffffffffffffffffffffff1673ffffffffffffffffffffffffffffffffffffffff164760405161023e90610911565b60006040518083038185875af1925050503d806000811461027b576040519150601f19603f3d011682016040523d82523d6000602084013e610280565b606091505b50509050806102c4576040517f08c379a00000000000000000000000000000000000000000000000000000000081526004016102bb90610972565b60405180910390fd5b50565b60015481565b600060015411610312576040517f08c379a0000000000000000000000000000000000000000000000000000000008152600401610309906109de565b60405180910390fd5b6103e8341015610357576040517f08c379a000000000000000000000000000000000000000000000000000000000815260040161034e90610a70565b60405180910390fd5b6001600081548092919061036a90610abf565b91905055506001600360003373ffffffffffffffffffffffffffffffffffffffff1673ffffffffffffffffffffffffffffffffffffffff16815260200190815260200160002060008282546103bf9190610ae8565b92505081905550565b600260009054906101000a900473ffffffffffffffffffffffffffffffffffffffff1681565b600260009054906101000a900473ffffffffffffffffffffffffffffffffffffffff1673ffffffffffffffffffffffffffffffffffffffff163373ffffffffffffffffffffffffffffffffffffffff161461047e576040517f08c379a00000000000000000000000000000000000000000000000000000000081526004016104759061082e565b60405180910390fd5b80600260006101000a81548173ffffffffffffffffffffffffffffffffffffffff021916908373ffffffffffffffffffffffffffffffffffffffff16021790555050565b60008060019054906101000a900460ff161590508080156104f35750600160008054906101000a900460ff1660ff16105b80610520575061050230610641565b15801561051f5750600160008054906101000a900460ff1660ff16145b5b61055f576040517f08c379a000000000000000000000000000000000000000000000000000000000815260040161055690610b8e565b60405180910390fd5b60016000806101000a81548160ff021916908360ff160217905550801561059c576001600060016101000a81548160ff0219169083151502179055505b8160018190555033600260006101000a81548173ffffffffffffffffffffffffffffffffffffffff021916908373ffffffffffffffffffffffffffffffffffffffff160217905550801561063d5760008060016101000a81548160ff0219169083151502179055507f7f26b83ff96e1f2b6a682f133852f6798a09c465da95921460cefb384740249860016040516106349190610c00565b60405180910390a15b5050565b6000808273ffffffffffffffffffffffffffffffffffffffff163b119050919050565b6000819050919050565b61067781610664565b82525050565b6000602082019050610692600083018461066e565b92915050565b600073ffffffffffffffffffffffffffffffffffffffff82169050919050565b60006106c382610698565b9050919050565b6106d3816106b8565b82525050565b60006020820190506106ee60008301846106ca565b92915050565b600080fd5b610702816106b8565b811461070d57600080fd5b50565b60008135905061071f816106f9565b92915050565b60006020828403121561073b5761073a6106f4565b5b600061074984828501610710565b91505092915050565b61075b81610664565b811461076657600080fd5b50565b60008135905061077881610752565b92915050565b600060208284031215610794576107936106f4565b5b60006107a284828501610769565b91505092915050565b600082825260208201905092915050565b7f4f6e6c79206f776e65722063616e2063616c6c20746869732066756e6374696f60008201527f6e2e000000000000000000000000000000000000000000000000000000000000602082015250565b60006108186022836107ab565b9150610823826107bc565b604082019050919050565b600060208201905081810360008301526108478161080b565b9050919050565b7f50726f66697473206d7573742062652067726561746572207468616e2030206960008201527f6e206f7264657220746f20776974686472617721000000000000000000000000602082015250565b60006108aa6034836107ab565b91506108b58261084e565b604082019050919050565b600060208201905081810360008301526108d98161089d565b9050919050565b600081905092915050565b50565b60006108fb6000836108e0565b9150610906826108eb565b600082019050919050565b600061091c826108ee565b9150819050919050565b7f4661696c656420746f2073656e64206574686572000000000000000000000000600082015250565b600061095c6014836107ab565b915061096782610926565b602082019050919050565b6000602082019050818103600083015261098b8161094f565b9050919050565b7f6e6f206d6f726520536f64617300000000000000000000000000000000000000600082015250565b60006109c8600d836107ab565b91506109d382610992565b602082019050919050565b600060208201905081810360008301526109f7816109bb565b9050919050565b7f596f75206d7573742070617920313030302077656920666f72206120736f646160008201527f2100000000000000000000000000000000000000000000000000000000000000602082015250565b6000610a5a6021836107ab565b9150610a65826109fe565b604082019050919050565b60006020820190508181036000830152610a8981610a4d565b9050919050565b7f4e487b7100000000000000000000000000000000000000000000000000000000600052601160045260246000fd5b6000610aca82610664565b915060008203610add57610adc610a90565b5b600182039050919050565b6000610af382610664565b9150610afe83610664565b9250828201905080821115610b1657610b15610a90565b5b92915050565b7f496e697469616c697a61626c653a20636f6e747261637420697320616c72656160008201527f647920696e697469616c697a6564000000000000000000000000000000000000602082015250565b6000610b78602e836107ab565b9150610b8382610b1c565b604082019050919050565b60006020820190508181036000830152610ba781610b6b565b9050919050565b6000819050919050565b600060ff82169050919050565b6000819050919050565b6000610bea610be5610be084610bae565b610bc5565b610bb8565b9050919050565b610bfa81610bcf565b82525050565b6000602082019050610c156000830184610bf1565b9291505056fea26469706673582212203cc01e8701eb7d7b9115e994f34389f1fa9b58b122e6b37e96aab58e1fdc9d6664736f6c63430008110033",
  "linkReferences": {},
  "deployedLinkReferences": {}
}